:020000020000FC
:10000000017A000000EE0AB90EE204B900E50CBD69
:1000100029985E985E9A00E011E244D014E142D043
:1000200010E240D01CE03ED011E23CD012EB3AD0BE
:1000300010E238D00DD000E010E010D008E11AE254
:100040000DD00FE213E50AD023D0299A0395FECFF5
:10005000F1E0E0E00192F330E9F70895302F3595B3
:100060003595359544E5349FF12DE02DE11F41E0B4
:1000700008F4F40FF40F37E0032331E0003021F0EF
:10008000330F0A950030E1F74081432B40830895F8
:10009000F1E0E0E0119101E005D0F230D9F7E83F5E
:1000A000C9F708955D9A013009F05D985F981EBD0B
:0A00B0000DB507FFFDCF5F9A08951C
:00000001FF
