:020000020000FC
:1004000004017179700004088E99E0000401698983
:10041000600004011799700004FF69F87000030D73
:1004200074900004017971970004088E999000017E
:100430005E000211560004089ACA9000017E000670
:1004400001083E9659400003010D680004FF06991B
:1004500060000401E99E880004010797110003026F
:1004600079200002039C00030174900004010999A3
:10047000600005010118A8800006FFFF21B5248057
:10048000000401096690000401099626000401F2A7
:0404900048F0000030
:1000000000EE0AB90EE204B900E50CBD29985E982D
:100010005E9A00E011E2B1D014E1AFD010E2ADD0B1
:100020001CE0ABD011E2A9D012EBA7D010E2A5D012
:100030007AD004D01ED097D0299AFFCFF3E0E0E425
:1000400008E6019305E601930CE601930CE60193A3
:100050000FE6019300E2019307E701930FE6019396
:1000600002E701930CE6019304E6019300E001939B
:10007000089520E010E0F3E0E0E40191003089F021
:10008000003219F434E0230F0BC0FF93EF932F934A
:100090001F9308D01F912F91EF91FF91200F23956F
:1000A000ECCF08952F931F931FD0302F0F911F91E6
:1000B000412FD3E0CC272991213059F44F933F931E
:1000C0002F931F930F9335D00F911F912F913F9135
:1000D0004F911395512F541B531769F7142F039504
:1000E000083049F7032F0895F4E0E0E001560030AE
:1000F00031F015911030E9F701500030D1F705913A
:10010000D3E0C0E010E02591203061F02F3F09F4EA
:1001100020E0139540E0220F08F441E049931830A5
:10012000C1F7F0CF0895F1E0E0E00192F330E9F794
:100130000895302F35953595359544E5349FF12D4B
:10014000E02DE11F41E008F4F40FF40F37E0032342
:1001500031E0003021F0330F0A950030E1F74081A3
:10016000432B40830895F1E0E0E0119101E005D0D8
:10017000F230D9F7E83FC9F708955D9A013009F0E8
:100180005D985F981EBD0DB507FFFDCF5F9A08957E
:00000001FF
