:020000020000FC
:1001000004017179700004088E99E0000401698986
:100110006000040117997000040169F87000030D74
:1001200074900004017971970004088E9990000181
:100130005E000211560004089ACA9000017E000673
:1001400001083E9659400003010D6800040106991C
:1001500060000401E99E8800040107971100030272
:1001600079200002039C00030174900004010999A6
:10017000600005010118A8800006010121B5248056
:10018000000401096690000401099626000401F2AA
:0401900048F0000033
:1000000000EE0AB90EE204B900E50CBD29985E982D
:100010005E9A00E011E268D014E166D010E264D08C
:100020001CE062D011E260D012EB5ED010E25CD036
:1000300031D003D04FD0299AFFCF19D0302F1127BC
:100040000027D3E0CC272991213049F43F932F9307
:100050001F930F9325D00F911F912F913F911395CF
:10006000131789F711270395083069F70895F2E00F
:10007000E0E00591D3E0C0E010E02591203049F0A8
:10008000139540E0220F08F441E049931830C1F77E
:10009000F3CF0895F1E0E0E00192F330E9F708953D
:1000A000302F35953595359544E5349FF12DE02D6C
:1000B000E11F41E008F4F40FF40F37E0032331E0CF
:1000C000003021F0330F0A950030E1F74081432BD7
:1000D00040830895F1E0E0E0119101E005D0F230B5
:1000E000D9F7E83FC9F708955D9A013009F05D98A6
:0E00F0005F981EBD0DB507FFFDCF5F9A089506
:00000001FF
