:020000020000FC
:10040000017A01020102010201020102010201025C
:10041000010201020102010203FF0EFF01020102BB
:1004200004069999600307924804069168F004064F
:10043000921960040999F110040F8E196004068E58
:100440009960040F1244400406969960040699715D
:100450006001120102010201020102040691202042
:100460000102050114AFC6200507A3E8C7C00503B4
:10047000A30845C00507A318C7C0040F8E88F00461
:100480000F8E88800503A309C5C0050463F8C62044
:10049000017E030493780504654E4A200408888889
:1004A000F00701071D5AB5648005047359C620067C
:1004B00001E861861780040F9F88800601C8A28A20
:1004C00067810507A31F46200503A28345C00507D2
:1004D000C842108005046318C5C005046318A880CD
:1004E000070126AD5AA891FF050454422A200504AD
:1004F000631710800507C26643E001020102010292
:1005000001020102010204FF71797004088E99E072
:1005100004FF698960040117997004FF69F870038A
:100520000D749004FF79719704088E9990015E0212
:10053000115604089ACA90017E06FF083E9659405B
:1005400003FF0D6804FF06996004FFE99E8804FF1D
:100550000797110302792002039C0301749004FFA2
:1005600009996005FF0118A88006FFFF21B52480C6
:1005700004FF09669004FF09962604FFF248F00084
:1000000000EE0AB90EE204B900E50CBD00E0009371
:10001000C50003E30093C40008E10093C1000EE0B3
:100020000093C20029985E985E9A00E011E2E9D040
:1000300014E1E7D010E2E5D01CE0E3D011E2E1D01A
:1000400012EBDFD010E2DDD0B2D0D1D010E02091A1
:10005000C00027FFFCCF0091C6000A3031F413D056
:100060003BD0C5D0299A10E0F2CF1F9303D01F9147
:100070001395EDCFD3E0C0E4C11F08F4C3950993F5
:1000800000E009930895F3E0E0E412E00191602FAD
:10009000003009F10A3011F412E0F8CF003229F4EF
:1000A000DF2FCE2F24E0120FF1CF6F931F93FF931A
:1000B000EF93DF93CF9356D0CF91DF91EF91FF91E4
:1000C0001F916F91100F139524E5211BFAF62AE07A
:1000D0002A9312E0DBCF089520E010E0F3E0E0E4A3
:1000E00001910030B9F00A3021F438E0130F20E01C
:1000F00010C0003219F434E0230F0BC0FF93EF93CC
:100100002F931F9308D01F912F91EF91FF91200FF4
:100110002395E6CF08952F931F9324D0302F0F916E
:100120001F91412F602FD3E0CC272991213069F412
:100130006F934F933F932F931F930F933ED00F9145
:100140001F912F913F914F916F911395512F541BF8
:10015000531759F7142F0395502F561B583029F772
:10016000032F0895F4E0E0E015910152003049F0CA
:10017000E10F15910A95003021F0E11FD0F7F395BA
:10018000F8CF012F512FD3E0C0E010E025912F3F91
:1001900009F420E0139540E0220F08F441E0499370
:1001A0001830C1F75A95503009F0EFCF0895F1E0BB
:1001B000E0E00192F330E9F70895302F3595359559
:1001C000359544E5349FF12DE02DE11F41E008F421
:1001D000F40FF40F37E0032331E0003021F0330F48
:1001E0000A950030E1F74081432B40830895F1E008
:1001F000E0E0119101E005D0F230D9F7E83FC9F70E
:1002000008955D9A013009F05D985F981EBD0DB5A7
:0802100007FFFDCF5F9A08957E
:00000001FF
