:020000020000FC
:10040000017A000102000102000102000102000164
:1004100002000102000102000102000102000102CB
:100420000001020003FF0EFF0001020001020004B0
:100430000699996000030792480004069168F0004D
:10044000040692196000040999F11000040F8E1936
:10045000600004068E996000040F124440000406F8
:100460009699600004069971600001120000000076
:100470000004069120200000050114AFC6200005ED
:1004800007A3E8C7C0000503A30845C0000507A3EC
:1004900018C7C000040F8E88F000040F8E888000FB
:1004A0000503A309C5C000050463F8C62000017E4A
:1004B0000003049378000504654E4A200004088870
:1004C00088F0000701071D5AB564800005047359C0
:1004D000C620000601E86186178000040F9F88800F
:1004E000000601C8A28A6781000507A31F462000F5
:1004F0000503A28345C0000507C84210800005041B
:100500006318C5C00005046318A88000070126AD64
:100510005AA891FF00050454422A200005046317DD
:100520001080000507C26643E000010200010200DE
:1005300001020001020001020001020004FF7179C2
:10054000700004088E99E00004FF698960000401CE
:100550001799700004FF69F87000030D749000048F
:10056000FF7971970004088E999000015E000211D6
:10057000560004089ACA9000017E0006FF083E96C5
:1005800059400003FF0D680004FF0699600004FF56
:10059000E99E880004FF07971100030279200002FA
:1005A000039C00030174900004FF0999600005FF9B
:1005B0000118A8800006FFFF21B524800004FF0970
:1005C00066900004FF0996260004FFF248F0000040
:1005D00048656C6C6F20576F726C642120492061F4
:1005E0006D20610A737472696E670A776974682096
:1005F0006D756C7469706C650A6C696E65732E003C
:020600000000F8
:1000000000EE0AB90EE204B900E50CBD29985E982D
:100010005E9A00E011E2A0D014E19ED010E29CD0E4
:100020001CE09AD011E298D012EB96D010E294D056
:1000300069D003D087D0299AFFCF20E010E0F5E007
:10004000E0ED05910030B9F00A3021F438E0130FEB
:1000500020E010C0003219F434E0230F0BC0FF93EE
:10006000EF932F931F9308D01F912F91EF91FF9142
:10007000200F2395E6CF08952F931F9324D0302F80
:100080000F911F91412F602FD3E0CC272991213070
:1000900069F46F934F933F932F931F930F9338D02F
:1000A0000F911F912F913F914F916F911395512F68
:1000B000541B531759F7142F0395502F561B5830C4
:1000C00029F7032F0895F4E0E0E00152003031F009
:1000D00015911030E9F701500030D1F70591D3E0C8
:1000E000C0E010E02591203061F02F3F09F420E0BE
:1000F000139540E0220F08F441E049931830C1F70E
:10010000F0CF0895F1E0E0E00192F330E9F70895CF
:10011000302F35953595359544E5349FF12DE02DFB
:10012000E11F41E008F4F40FF40F37E0032331E05E
:10013000003021F0330F0A950030E1F74081432B66
:1001400040830895F1E0E0E0119101E005D0F23044
:10015000D9F7E83FC9F708955D9A013009F05D9835
:0E0160005F981EBD0DB507FFFDCF5F9A089595
:00000001FF
