:020000020000FC
:10040000017A000102000102000102000102000164
:1004100002000102000102000102000102000102CB
:100420000001020003FF0EFF0001020001020004B0
:100430000699996000030792480004069168F0004D
:10044000040692196000040999F11000040F8E1936
:10045000600004068E996000040F124440000406F8
:100460009699600004069971600001120000000076
:100470000004069120200000050114AFC6200005ED
:1004800007A3E8C7C0000503A30845C0000507A3EC
:1004900018C7C000040F8E88F000040F8E888000FB
:1004A0000503A309C5C000050463F8C62000017E4A
:1004B0000003049378000504654E4A200004088870
:1004C00088F0000701071D5AB564800005047359C0
:1004D000C620000601E86186178000040F9F88800F
:1004E000000601C8A28A6781000507A31F462000F5
:1004F0000503A28345C0000507C84210800005041B
:100500006318C5C00005046318A88000070126AD64
:100510005AA891FF00050454422A200005046317DD
:100520001080000507C26643E000010200010200DE
:1005300001020001020001020001020004FF7179C2
:10054000700004088E99E00004FF698960000401CE
:100550001799700004FF69F87000030D749000048F
:10056000FF7971970004088E999000015E000211D6
:10057000560004089ACA9000017E0006FF083E96C5
:1005800059400003FF0D680004FF0699600004FF56
:10059000E99E880004FF07971100030279200002FA
:1005A000039C00030174900004FF0999600005FF9B
:1005B0000118A8800006FFFF21B524800004FF0970
:1005C00066900004FF0996260004FFF248F0000040
:1000000000EE0AB90EE204B900E50CBD29985E982D
:100010005E9A00E011E2B3D014E1B1D010E2AFD0AB
:100020001CE0ADD011E2ABD012EBA9D010E2A7D00A
:100030007CD004D020D099D0299AFFCFF3E0E0E41F
:1000400008E4019305E601930CE601930CE60193A5
:100050000FE6019300E2019307E501930FE6019398
:1000600002E701930CE6019304E6019301E2019398
:1000700000E00193089520E010E0F3E0E0E4019156
:10008000003089F0003219F434E0230F0BC0FF93E5
:10009000EF932F931F9308D01F912F91EF91FF9112
:1000A000200F2395ECCF08952F931F931FD0302F4F
:1000B0000F911F91412FD3E0CC272991213059F482
:1000C0004F933F932F931F930F9335D00F911F9111
:1000D0002F913F914F911395512F541B531769F74F
:1000E000142F0395083049F7032F0895F4E0E0E05A
:1000F0000152003031F015911030E9F70150003015
:10010000D1F70591D3E0C0E010E02591203061F0F7
:100110002F3F09F420E0139540E0220F08F441E05E
:1001200049931830C1F7F0CF0895F1E0E0E0019273
:10013000F330E9F70895302F35953595359544E539
:10014000349FF12DE02DE11F41E008F4F40FF40F8E
:1001500037E0032331E0003021F0330F0A950030FF
:10016000E1F74081432B40830895F1E0E0E01191F5
:1001700001E005D0F230D9F7E83FC9F708955D9A5C
:10018000013009F05D985F981EBD0DB507FFFDCFEA
:040190005F9A0895D5
:00000001FF
