:020000020000FC
:10000000017A000000EE0AB90EE204B900E50CBD69
:100010005E9A5E985E9A00E011E254D0299800E062
:1000200010EB50D000E014E04DD000E014E14AD0D5
:1000300000E010E247D000E01CE044D000E011E214
:1000400041D000E012EB3ED000E010E23BD00DD0FA
:1000500000E010E013D008E11AE210D00FE213E53F
:100060000DD026D0299A0395FECF00E0F1E0E0E024
:100070000193F230E9F7E83FD9F70895302F35952D
:100080003595359544E5349FF12DE02DE11F41E094
:1000900008F4F40FF40F37E0032331E0003021F0CF
:1000A000330F0A950030E1F74081432B40830895D8
:1000B000F1E0E0E0119101E005D0F230D9F7E83F3E
:1000C000C9F7089521E0021711F05D9801C05D9A0B
:0E00D0005F981EBD0DB507FFFDCF5F9A089526
:00000001FF
