:020000020000FC
:10000000050463F8C620000000EE0AB90EE204B948
:1000100000E50CBD29985E985E9A00E011E263D07D
:1000200014E161D010E25FD01CE05DD011E25BD042
:1000300012EB59D010E257D02CD003D04AD0299AD5
:10004000FFCFF0E0E0E055911127002778E078300D
:1000500021F465916030E1F077277395660F88F49D
:100060007F936F935F932F931F930F93FF93EF9360
:1000700016D0EF91FF910F911F912F915F916F918A
:100080007F911395151719F7039511270830F9F685
:100090000895F1E0E0E00192F330E9F70895302FA0
:1000A00035953595359544E5349FF12DE02DE11FCB
:1000B00041E008F4F40FF40F37E0032331E000309F
:1000C00021F0330F0A950030E1F74081432B408344
:1000D0000895F1E0E0E0119101E005D0F230D9F7A8
:1000E000E83FC9F708955D9A013009F05D985F987F
:0C00F0001EBD0DB507FFFDCF5F9A0895FF
:00000001FF
