:020000020000FC
:10000000017A000000EE0AB90EE204B900E50CBD69
:1000100029985E985E9A00E011E246D014E144D03F
:1000200010E242D01CE040D011E23ED012EB3CD0B6
:1000300010E23AD00DD000E010E012D008E11AE250
:100040000FD00FE213E50CD025D0299A0395FECFEF
:10005000F1E0E0E00192F230E9F7E83FD9F70895E6
:10006000302F35953595359544E5349FF12DE02DAC
:10007000E11F41E008F4F40FF40F37E0032331E00F
:10008000003021F0330F0A950030E1F74081432B17
:1000900040830895F1E0E0E0119101E005D0F230F5
:1000A000D9F7E83FC9F708955D9A013009F05D98E6
:0E00B0005F981EBD0DB507FFFDCF5F9A089546
:00000001FF
