:020000020000FC
:10000000017A000000EE0AB90EE204B900E50CBD69
:1000100029985E985E9A00E011E243D014E141D045
:1000200010E23FD01CE03DD011E23BD012EB39D0C2
:1000300010E237D00CD000E010E00FD008E11AE257
:100040000CD00FE213E509D022D0299AFFCFF1E0BE
:10005000E0E00192F330E9F70895302F35953595BA
:10006000359544E5349FF12DE02DE11F41E008F482
:10007000F40FF40F37E0032331E0003021F0330FA9
:100080000A950030E1F74081432B40830895F1E069
:10009000E0E0119101E005D0F230D9F7E83FC9F76F
:1000A00008955D9A013009F05D985F981EBD0DB509
:0800B00007FFFDCF5F9A0895E0
:00000001FF
